:1000000066C0000099C0000097C0000095C00000C5
:1000100093C0000091C000008FC000008DC00000A0
:100020008BC0000089C0000087C0000085C00000B0
:1000300083C0000081C000007FC000007DC00000C0
:100040007BC0000079C0000077C0000075C00000D0
:1000500073C00000F8C50000F0C50000FAC500003C
:100060006BC0000069C0000067C0000065C00000F0
:1000700063C0000061C000005FC00000B1C50000A7
:10008000D1C50000C9C50000D3C5000055C000009F
:1000900053C0000051C000004FC000004DC0000020
:1000A0004BC0000049C0000047C0000045C0000030
:1000B0000A0B0C0D0E0F00010203040500080A0CC8
:1000C000000C00000201040603000300A506112431
:1000D0001FBECFEFCDBFDFE7DEBF80914000809332
:1000E0004000811105C098ED21E094BF20934100AC
:1000F0008CBB2CE6A2E1B4E401C01D92A83CB2077F
:10010000E1F714E4A0E0B0E4EEE5F5E200E00BBFB7
:1001100002C007900D92A231B107D9F710E0C7E6EF
:10012000D0E004C02197FE010E946A12C636D107B2
:10013000C9F7BCD60C94AD1263CFFB01A485B5857D
:10014000ED91FC9111970190F081E02D682FCD0188
:10015000099590E080E008950000DC01ED91FC91AC
:1001600011976483ED91FC91838187FFFDCF84819A
:10017000089501C00895FEDF8230910550F09C0182
:10018000220F331F0397820F931F019700C000C0F7
:10019000E1F708959FB7F894E0912A0BF0912B0BAB
:1001A0008091260B2091556B3091566B4091576B87
:1001B0005091586B9FBF80FF08C0CF018827892BC3
:1001C00021F42F5F3F4F4F4F5F4F0F01169407945D
:1001D000169407941694079416940794F0011694B5
:1001E0000794E00DF11D16940794102C1694011835
:1001F0001694010C169401181694010C169401180B
:1002000016941694010C1124E019F109A8EEB3E03C
:100210000E942F126E0F7F1F811D911D0895CF9296
:10022000DF92EF92FF92CF93DF936B017C01B2DFFD
:10023000EB01B0DF6C1B7D0B683E7340D0F381E0B7
:10024000C81AD108E108F108C851DC4FC114D10423
:10025000E104F10471F7DF91CF91FF90EF90DF900F
:10026000CF9008952FB7F8946091556B7091566BAD
:100270008091576B9091586B2FBF0895AF92BF92AA
:10028000CF92DF92EF92FF920F931F93CF93DF9362
:100290006C017B018B01040F151FEB015E01AE1891
:1002A000BF08C017D10759F06991D601ED91FC91B3
:1002B0000190F081E02DC6010995892B79F7C501E0
:1002C000DF91CF911F910F91FF90EF90DF90CF9032
:1002D000BF90AF900895FC0151894289252F30E0ED
:1002E000842F90E0821B930B541710F0CF96089543
:1002F00001970895FC0197858089981761F0A0897E
:10030000AE0FBF2FB11D53968C9190899F5F9F7345
:10031000908B90E008958FEF9FEF08954F925F923A
:100320006F927F928F929F92AF92BF92CF92DF9205
:10033000EF92FF920F931F93CF93DF936A018B018C
:10034000D0E0C0E0E82E880FFF088CDF4B015C0195
:1003500089E79BE6CFDF97FF24C084DF681979091E
:100360008A099B0940907D6B50907E6B60907F6BFB
:100370007090806B641575058605970548F3CE016E
:10038000DF91CF911F910F91FF90EF90DF90CF9071
:10039000BF90AF909F908F907F906F905F904F90A5
:1003A0000895E816F90659F3F80181938F01219613
:1003B000CC16DD0651F6E3CFFC01978580899817AE
:1003C00031F08089E80FF11D838990E008958FEF67
:1003D0009FEF0895FC0197852089892F90E0805C2C
:1003E0009F4F821B91098F7399270895FC010FB6C7
:1003F00007FE04C0809111018823A1F0A085B1857A
:1004000014968C91149785FF0DC091898289981359
:1004100007C015968C9115978F7D15968C9308952E
:10042000E89424C408950F931F93CF93DF93EC01B6
:100430008E8581608E8799898A8998130BC0E8859B
:10044000F985848185FF06C08E8581FD0DC080E41D
:10045000848312C0062F19891F5F1F738A89811335
:1004600015C0CE01C3DFFACF85818F77806490E419
:100470009483E885F9858583E885F985628381E041
:1004800090E0DF91CF911F910F910895E989EC0FD2
:10049000FD2FF11DED5AFF4F0083198B8E85E885E6
:1004A000F98581FF09C085818F77806690E4948308
:1004B000E885F9858583E3CF85818062FBCFCF9383
:1004C000DF93EC018E85882359F0E885F9858581D5
:1004D00085FD03C0848186FD03C0CE0187DFF5CF93
:1004E000DF91CF910895CF93DF93EC018E8580FF4C
:1004F0000DC0CE01E4DFE885F9858681168285810D
:10050000158280E4848388898F871E866FB7F8946C
:10051000E885F985168233E0378381E493E08087AC
:100520009187148680E8858380EC86832D857C8581
:100530008A859B85FC01239FE00DF11D11244591C7
:100540005491271708F03EC05B3190F4252F30E01E
:10055000F901E65AFF4BA081AF3F51F0215C3F4BC0
:10056000E901E881D0E2ED9FF0011124FC5FA18355
:1005700021E0250F2B3130F530E0F901E65AFF4B31
:10058000C081CF3FF9F0F901E15CFF4BA081E0E2CF
:10059000AE9FD0011124BC5F2C5D3F4BF901D0818F
:1005A000F0E0E0E0D83030F49D01205F3F4FF901EA
:1005B000ED0FF11D3FB7F8941296CC93208128607F
:1005C00020833FBFFC0123E0729FE00DF11D112449
:1005D0003296E4918091E205E095E823E42BE093E4
:1005E000E2056FBFDF91CF91089590E0FC01E65ADC
:1005F000FF4B20812F3F79F0815C9F4BDC01EC9118
:10060000B0E2EB9FF0011124FC5F9085922381E022
:1006100019F480E008958FEF08950F931F93CF93FF
:10062000DF938B3108F0ADC090E0DC01A65ABF4BE0
:100630002C912F3F09F4A5C08C01015C1F4BE801F0
:10064000E881D0E2ED9FF0011124FC5F611132C01E
:10065000268330812323AC014C5D5F4B211111C0F7
:10066000EA012881309779F1283068F57096E20F19
:10067000F11D3FB7F8942081611128C0277F2083A6
:100680003FBFFA0130813F3F09F47BC0E801288178
:100690003630F0F43091E6053770231319C0EC9131
:1006A000E53008F0EE0F8091010AE095E823E09331
:1006B000010A67C0643029F434812783648162238E
:1006C000C8CF2583C6CFF0E0E0E0D3CF2860D7CFF6
:1006D000875F9F4BFC01808186FF3DC09091E805BC
:1006E0009770482F50E04F7B94171506A1F5EC91B9
:1006F0008091920B8E2309F444C0C0E22C9F90019C
:1007000011243C5FE83008F052C0205F3F4FE20FF9
:10071000F32FF11D4FB7F8949091800B9E7F90932B
:10072000800B90918E0B90FFFCCF2091920B90E06C
:100730008095909530E08223932328ED24BF809309
:10074000920B8091800B81608093800B80818F77EA
:1007500080834FBF16C085FF12C030E1839FF00138
:100760001124F75F91819770973059F4EC9185329D
:1007700068F4803298F4803109F492CF02C081117C
:10078000F5CFDF91CF911F910F910895803409F437
:10079000AFCF8038B1F71092A006F3CF90E1899FD8
:1007A000F0011124F75F81818F7E8183EACFF0E031
:1007B000E0E0B0CF682F8091AC6C9091AD6C891364
:1007C0002CCF0895CF93DF93CAEADCE6682F8B81A4
:1007D00024DF8A8D9B8DDF91CF91CBCC81E0F2DF3E
:1007E000E091AA6CF091AB6C8285882331F012867F
:1007F0008085882311F081858FBF08950F931F9303
:10080000E091AA6CF091AB6C0091AE6C1091AF6C62
:100810002091B06C3091B16C40E05BE167EB70E02F
:1008200080E0041715072607370740F4769567958B
:10083000579547958F5F8630A1F787E091E089272C
:1008400090E1899F90011124207186708162822B32
:100850009085992319F09FB79187F89491E092873A
:10086000A081B1818C930190F081E02D84E081839F
:1008700080E01F910F91A6CFCF93DF93C82FBEDFEB
:100880006C2F6062CAEADCE68881998165DC888722
:10089000DF91CF91A3CF1F93CF93DF93C82F162F54
:1008A000ADDF6C2F6062CAEADCE68881998154DC96
:1008B0008887612F888199814FDCDF91CF911F91CB
:1008C0008DCF6091B96C61FD0BC062606093B96CB3
:1008D00080E0E1DF8FE295E70197F1F700C00000CB
:1008E0000895CF92DF92EF92FF920F931F93CF93D1
:1008F000DF938091BE6CC0E0D4E1811107C0C0914C
:10090000B36CDC2FC53108F0D4E1CD1B77DF60EA92
:100910008091AA6C9091AB6C1FDC8093B26C09E55E
:100920001BE6D15048F0F80161918F018091AA6CCB
:100930009091AB6C11DCF5CFC15038F060E0809144
:10094000AA6C9091AB6C08DCF7CF48DF81E032DF16
:1009500089DC6B017C018FEF8FDF8091B26C80733B
:10096000B9F480DC6C197D098E099F096036710528
:100970008105910580F381E08093BF6C80E0DF9179
:10098000CF911F910F91FF90EF90DF90CF9008953E
:1009900080E010DF60E787E07EDF8091B26C84FF4B
:1009A00003C081EE69DFEACF81E0E9CF1F93CF93E7
:1009B000DF93182F23DFCAEADCE6612F8881998153
:1009C000CBDB88876FEF88819981C6DBC82F06DF74
:1009D0008C2FDF91CF911F91089580E6E7DF813260
:1009E00040F082EE49DF62E070E080E090E017DCEA
:1009F00080E00895CF93DF93EC0186E0D7DF877D19
:100A00002297D1F048E151E060E070E04093C06C83
:100A10005093C16C6093C26C7093C36CC0E0C82BE0
:100A20006C2F86E038DF86E0C1DF91E0C81390E0EC
:100A3000892FDF91CF91089549EF51E060E070E098
:100A40004093C06C5093C16C6093C26C7093C36C44
:100A5000C0E2E5CFFF920F931F93CF93DF93C82F90
:100A6000F62E072F142FCADE6C2F60628091AA6CBD
:100A70009091AB6C71DB8093B26CCF2DD02F115065
:100A800038F069918091AA6C9091AB6C65DBF7CFDF
:100A9000DF91CF911F910F91FF90A0CE0F931F93E5
:100AA000CF93DF939091BE6C91111EC0C091B36C37
:100AB000DC2F8C1708F4D82FCD1BA0DE61E68091C7
:100AC000AA6C9091AB6C48DB8093B26C09E51BE695
:100AD000D15080F06FEF8091AA6C9091AB6C3CDBB1
:100AE000F80181938F01F4CFD82F813208F0D0E242
:100AF000C0E0E3CFC15038F06FEF8091AA6C9091C5
:100B0000AB6C2ADBF7CFDF91CF911F910F9166CEAF
:100B1000CF93DF9373DECAEADCE660E588819981D2
:100B20001BDB888763E78881998116DBDF91CF9192
:100B300055CEFB0101900020E9F73197AF01461B2C
:100B4000570B9CCB0F931F93CF93DF93EC01F1DFF7
:100B50008C0165E772E4CE01ECDF800F911FDF911D
:100B6000CF911F910F91089567E870E48CE09CE6A7
:100B7000E9DF8CE09CE6A3DC64EF71E080E090E0CC
:100B80004EDB88ED91E084BF90934100089561159C
:100B9000710509F0CECF90E080E00895CF93DF9308
:100BA000CDB7DEB72E97CDBFDEBF8DE990E0898748
:100BB0009A871B861C8682E08C838CE09CE68D875E
:100BC0009E87AE01495E5F4F6D897E89CE01019699
:100BD0000E94AA0E2E96CDBFDEBFDF91CF91089561
:100BE000EF93FF93E5E5FBE68F938FB78F938081BB
:100BF0008F5F808381818F4F818382818F4F82833A
:100C000083818F4F838381E08093260B8F918FBFE9
:100C10008F91FF91EF911895EF93FF93F89AE9E781
:100C2000FBE61CC0EF93FF93F89AE9E7FBE644C0AC
:100C3000EF93FF93E9E7FBE66FC0EF93FF93F8981C
:100C4000ECE0FCE60BC0EF93FF93F898ECE0FCE6D9
:100C500033C0EF93FF93ECE0FCE65EC02F932FB719
:100C60002F938F939F93AF93BF936894CF93DF930A
:100C700020E0C085D8E09289DF01A90FB21FAD5AEC
:100C8000BF4F8C9120E42C838A839F5F9F738D815B
:100C90002189291302C08F7D8D83928BDF91CF91A3
:100CA0000EF0C0CBBF91AF919F918F912F912FBF2D
:100CB0002F91FF91EF9118952F932FB72F933F937B
:100CC0008F939F93CF93DF93C085D8E02E812F7EA3
:100CD0002E83898198818674880F3685382B82FD12
:100CE0000DC0C78581E08C0F8F732089281791F084
:100CF000CE0FDF2F20E0D21F9B8B87873687DF91B7
:100D0000CF919F918F913F912F912FBF2F91FF9165
:100D1000EF9118953064F2CF8F938FB78F939F9395
:100D2000CF93DF93C085D8E09D8188818C8187FD3A
:100D3000FCCF9F7B90689D83DF91CF919F918F9196
:100D40008FBF8F91FF91EF91189540E05BE167EBCA
:100D500070E080E08F5F863011F487E00BC07695FD
:100D6000679557954795413099E059079DE3690785
:100D7000710580F791E0892744E04093786B50E15A
:100D8000859F90011124207186708162822B80934F
:100D9000776B20E439E020939F6C3093A06C4093F4
:100DA000A26C86E08093A36C1092A56C1092A66C46
:100DB00010927B6B10927C6B48EE53E060E070E029
:100DC00040937D6B50937E6B60937F6B7093806BD1
:100DD00029E730E42093796B30937A6BE0E2F8E016
:100DE000E093816BF093826BECEBF0E0E093836B2C
:100DF000F093846B9093856B1092866B1092876B47
:100E000010920E6C10920F6C4093106C5093116CFA
:100E10006093126C7093136C20930C6C30930D6C78
:100E200020E038E02093146C3093156C22EC30E015
:100E30002093166C3093176C82E08093186C10929C
:100E4000196C10921A6C85E18093AC6C86E18093EA
:100E5000AD6C40E856E968E970E04093AE6C5093A1
:100E6000AF6C6093B06C7093B16C80E28093B36CA4
:100E70001092BA6C1092BB6C85E08093BD6C90931D
:100E8000BE6C85E090E0A0E0B0E08093C46C9093ED
:100E9000C56CA093C66CB093C76C8FE99CE6809339
:100EA000AA6C9093AB6C1092B46C0895CF93DF93BF
:100EB000CDB7DEB7A197CDBFDEBF88ED94E284BF8A
:100EC0009093680021E02093030A9EEF9093260AF6
:100ED0009093270A8BE08093000A33E03093E60575
:100EE0001092E70547E04093010B90930C0B109292
:100EF0000D0B85E08093000B4093110B90931C0B1E
:100F000010921D0B8093100B4FEF5FE04093AA0BE4
:100F10005093AB0B90E89093820B1092810B4BEFA8
:100F200053E04093AE0B5093AF0B41E74093800BDF
:100F3000809302064EE04093050640E64093030688
:100F4000809300068091B000887F85608093B00018
:100F50008091B200887F85608093B2004FED5EE2A1
:100F600040932C0B50932D0B2093250B1092210BAB
:100F70003093200B7894909301043FB7F89498E055
:100F800090934204809153048860809353043FBF40
:100F90003FB7F894909362048091730488608093C3
:100FA00073043FBF9FB7F89480E1809362048091FF
:100FB00074048860809374049FBF9FB7F89480E2A4
:100FC00080936204809175048860809375049FBF4C
:100FD0009FB7F89480E480936204809176048860DF
:100FE000809376049FBF9FB7F8942093A2048091CA
:100FF000B00488608093B0049FBF8CE09CE673DAF5
:101000006EE970E48CE09CE69DDD89E79BE66BDA97
:1010100084E1EBDA91E0811101C090E09093546B90
:1010200069EB70E48CE09CE68DDD8FE0DEDA8823EE
:1010300009F4CAC083E090E0809312449093134473
:101040006FEC70E48CE09CE67DDD809100408C7F4D
:101050008093004080E1C9DA90910040882309F430
:10106000BCC094609093004080910040877F809343
:10107000004081E1BADA90910040882309F4AFC0C2
:10108000906190930040809100408F7D809300405C
:1010900082E1ABDA90910040882309F4A2C0906409
:1010A00090930040809100408F778093004084E1CE
:1010B0009CDA91E0811101C090E09093546B0AE0BA
:1010C00010E064E087E0A9DA6BEF70E48CE09CE666
:1010D0005EDD68EC70E080E090E0A1D8015011097D
:1010E00081F765E772E48CE09CE623DDE091AA6C71
:1010F000F091AB6C8781811106C01086128680E862
:10110000818781E087839681208131812034394035
:1011100009F069C08091E4058C7F892B8093E405F8
:101120002481822F90E02B3188F4DC01A65ABF4B3A
:101130002C912F3F59F0815C9F4BDC019C9130E258
:10114000939FD0011124BC5F11962C932381822F91
:1011500090E02B3188F4DC01A65ABF4B2C912F3F35
:1011600059F0815C9F4BDC019C9130E2939FD00150
:101170001124BC5F11962C939091776B8091786BC2
:10118000A081B1819C930190F081E02D8183309109
:10119000AC6C3F3F61F56FEF70E48CE09CE6D2DC15
:1011A00002E310E064E087E038DA64E670E080E0B3
:1011B00090E035D801501109A9F7D6DC65E772E453
:1011C0008CE09CE6B6DC98C081E090E0809312440D
:1011D0009093134465EE70E435CF9B7F43CF9F7EA1
:1011E00050CF9F7B5DCF8091E405837F96CF209188
:1011F000AD6C2F3F81F2321741F1832F90E03B31EC
:1012000080F4FC01E65AFF4B30813F3F51F0815C96
:101210009F4BDC01EC91B0E2EB9FF0011124FC5FED
:101220003183822F90E02B3180F4FC01E65AFF4B92
:1012300020812F3F51F0815C9F4BDC01EC91B0E2AB
:10124000EB9FF0011124FC5F218380E0B3DA81E0A1
:10125000B9DA65E070E080E090E00E940F016FE590
:1012600084E019DB90E080E0C5DB8DE19FDB182F87
:101270004FDC8DE19BDB91E0181390E09093BA6C0A
:10128000882331F0181301C043DC60E08DE103DBFB
:101290001092BC6C60E08CE1FEDA1092BE6C6FE3E1
:1012A00081E0F9DA63E082E0F6DA80E28093B36C01
:1012B00011E16091B36C812FEEDA1F5F1731C9F72E
:1012C00063E083E0E8DA85E08093BD6C6CE4E3DA08
:1012D00060E787E0E0DA82EECFDA81EECDDA6CE02B
:1012E00080E0D9DA80E062DB8093B96CEADA809141
:1012F000B96C8E3009F04FCF1091124486E056DB66
:10130000887F612F143008F063E0660F6F5F682BF1
:1013100086E0C1DA82E090E06DDB6091B96C637FBA
:1013200068606093B96C80E0B6DA8DE13FDB682FCE
:1013300064608DE1B0DA8CE139DB682F6F638CE19A
:10134000AADA81E08093BE6C84E18093B36C11E1F2
:101350006091B36C812F9FDA1F5F1731C9F76AEA7A
:1013600084E099DA809100401F928F931F928F93AF
:101370008FE191E49F938F938CE09CE69F938F93F2
:101380000DDC60910040CDBFDEBF6D3708F06DE72A
:1013900085E081DA8091546B882309F4CAC061E446
:1013A00071E489E79BE6CEDB83E090E49F938F9323
:1013B00081E591E49F938F938CE09CE69F938F93BC
:1013C000EDDB4091BD6C50E063E070E484EB9CE6A3
:1013D0000E94A41281E08093BB6CE0EBF0E084916A
:1013E0004091BD6C63E070E435DB82E0DFDA76EBE0
:1013F000C72E70E0D72EF601949101E010E0B801FD
:1014000001C0660F9A95EAF7682B82E044DA59DA50
:101410006091B96C61606093B96C80E03CDA60E720
:1014200087E039DA81E0C6D90F900F900F900F90C6
:101430000F900F908091BB6C882309F46AC0409193
:10144000BD6C64EB7CE68AE005DB0E9432016054EF
:101450007943824D9F4F6093144470931544809359
:101460001644909317444AE4E42E4BE6F42E5BE2D4
:10147000252E54E4352E64EF462E55245394612CCA
:10148000712C8091546B882309F478C18FEFF4D9C3
:101490008091B26C90E0959587958770863008F0C2
:1014A0005BC1A9E5BBE6EEE11D92EA95E9F795DAA5
:1014B000082FF4DA60E487E0EED9E9E5FBE68191F4
:1014C0008823F9F28F32D9F761E087E0A6D88AE164
:1014D00097E2D101FC011D923197E9F710E0A801D4
:1014E00069E57BE68BE294E40E94A4120093184421
:1014F0001093194410922444109225440E94320102
:1015000060931A4470931B4480931C4490931D4431
:10151000B3C082E04BDAF601C49001C0000FCA9458
:10152000EAF70095602F682382E0B5D91092BB6C72
:101530008CCF64E771E489E79BE604DBEBE2F4E43B
:101540008FE197E2DF019C011D9221503040E1F7CD
:1015500083E090E49F938F9387E891E49F938F9328
:101560008CE09CE69F938F9319DB8AE090E0A0E0EB
:10157000B0E080937D6B90937E6BA0937F6BB09374
:10158000806B4091BD6C63E070E464DA4091BD6CA7
:1015900063E070E480E15EDA80E00CD98091C06C99
:1015A0009091C16C0E94B9000F900F900F900F9016
:1015B0000F900F908091BC6C882311F081EE5CD964
:1015C0006091B96C6E7F6093B96C80E064D982E001
:1015D000EDD9E6EBF0E0E49161E070E001C0660F68
:1015E000EA95EAF7682B82E056D93DCFA9E5BBE63C
:1015F000EEE11D92EA95E9F78FEF3ED98091B26C4A
:1016000090E09595879587708630B0F5E6D9082FDC
:1016100045DA60E487E03FD98091596B8A32D1F492
:1016200080915A6B8534B1F480915B6B8F3491F467
:1016300080915C6B843571F480915D6B8A3251F4DA
:1016400066E072E48CE09CE67DDA60E087E00E9470
:101650000D0329C0C0901844D090194410E0A8018F
:1016600069E57BE6C601855D9B4B6ED70C0D1D1DA4
:101670000093184410931944809118449091194490
:101680008130974284F40E943201009114441091F9
:101690001544209116443091174460177107820752
:1016A000930708F4A3CF65E772E48CE09CE641DA87
:1016B000D1010D900020E9F7CD018C529444209186
:1016C000244430912544821B930B9F938F938DEA82
:1016D00091E49F938F930CE01CE61F930F935EDAC7
:1016E0006091244470912544655D7B4BC8014FDABD
:1016F0006091244470912544655D7B4B89E79BE6AE
:1017000046DA0E94320160547943824D9F4F6093C4
:1017100014447093154480931644909317440E9488
:10172000320180901A4490901B44A0901C44B090C9
:101730001D44DC01CB0188199909AA09BB09BF9393
:10174000AF939F938F938EED91E49F938F931F930D
:101750000F9324DACDBFDEBF0E9432010091144402
:10176000109115442091164430911744061717071D
:101770002807390708F085CEF7D983CE89E79BE69D
:101780000E94EA01892B09F47CCE8AE0D7011D92E0
:101790008A95E9F78AE197E2F1019C0111922150C3
:1017A0003040E1F780ED97E0A0E0B0E080937D6B02
:1017B00090937E6BA0937F6BB093806B0E943201FD
:1017C00060932744709328448093294490932A443B
:1017D00041E057E26BE274E481E20E948E018C01E9
:1017E0006C011F938F9389E192E49F938F938CE018
:1017F0009CE69F938F93D2D90F900F900F900F90EC
:101800000F900F900D3F96E21907CCF06CE272E456
:101810008CE09CE697D96BE274E48CE09CE692D96C
:101820006CE572E48CE09CE68DD969E672E48CE0AC
:101830009CE688D98CE09CE60E945F0222CE0E9442
:1018400032018090274490902844A0902944B09081
:101850002A44681979098A099B09603D7740810506
:10186000910518F068E772E4E2CFF801E55DFB4B03
:1018700090E080E0A801481B590B219120522F35A0
:10188000E8F10197863FBFEF9B07A1F786010F5F45
:101890001F4FF601E55DFB4B81E280838AE0F70193
:1018A00011928A95E9F740927D6B50927E6B60921F
:1018B0007F6B7092806B4AE050E06AE47BE68DE0DB
:1018C0000E948E01EAE4FBE6D7010D900020E9F7C3
:1018D0009D012B543B46C8010196AF014A545B461B
:1018E0004217530768F4219130EE320F3F3560F70D
:1018F000D801A55DBB4B2C938C01E6CF6A01C6CF06
:10190000F801E55DFB4B3DE03083855D9B4B2AE0B4
:10191000DC012C93328323830B5F1F4F1482809151
:1019200001409091024008171907ECF49F938F93A0
:101930001F930F9386E992E49F938F938CE09CE62C
:101940009F938F932BD98091014090910240CDBFFE
:10195000DEBF8D3391050CF494CD0A97809301403E
:10196000909302408ECD109226448FEF9FEF80938C
:10197000244490932544F10101900020E9F78F0160
:101980000C5214440093224410932344B801012EB6
:10199000000C880B990B74D42DEC3CEC4CE45FE309
:1019A000AAD4A1D560930140709302401F930F9376
:1019B0008CED92E49F938F938CE09CE69F938F93A2
:1019C000EDD88091224490912344209126440F9099
:1019D0000F900F900F900F900F9097FD20C0211146
:1019E0001EC0FC01E55DFB4B30813F3211F521E06B
:1019F0002093264480932444909325449F938F936F
:101A00008CEF92E49F938F938CE09CE69F938F934F
:101A1000C5D80F900F900F900F900F900F9080915E
:101A20002644811108C06BE273E48CE09CE68AD8FE
:101A300028CD0197D2CF63E573E48CE09CE682D891
:101A40006091244470912544655D7B4B8CE09CE65D
:101A50009ED8D1010D900020E9F7CD018C5294441D
:101A60002091244430912544821B930B809322447F
:101A7000909323446AE873E48CE09CE688D88090D5
:101A8000224490902344092C000CAA08BB08B7FEFE
:101A9000C1C06DE28CE09CE60E941302222733272E
:101AA000A901281939094A095B0919A28E010F5D9C
:101AB0001F4F9AE0892E912CA12CB12CCA01B9019B
:101AC000A5019401E5D4605DF80162938F012115B1
:101AD00031054105510591F70115110521F0B801B6
:101AE0008CE09CE626D86AE973E48CE09CE62AD870
:101AF0008CE09CE60E945F02A0902244B0902344B8
:101B0000C0902444D090254410921E4410921F444B
:101B100010922044109221441092244410922544A3
:101B200066EA73E48CE09CE60DD861E087E00E94F1
:101B30000D030E94320160931A4470931B448093FA
:101B40001C4490931D44E0912444F0912544EA15EF
:101B5000FB050CF097C0A9E5BBE62EE11D922A9586
:101B6000E9F7EC0DFD1DE55DFB4BA9E5BBE68191B9
:101B70008D938DE69BE68A179B07C9F769E57BE69F
:101B80008CE09CE604D810921E4410921F441092E0
:101B90002044109221440E947104811155C06AE0D2
:101BA00070E080E090E00E940F0180911E449091CF
:101BB0001F44A0912044B09121440196A11DB11D64
:101BC00080931E4490931F44A0932044B0932144DB
:101BD000C297A105B105F8F262EF73E48CE09CE6D0
:101BE0000E94A2050FE010E064E087E00E940D0370
:101BF00066E470E080E090E00E940F01015011095E
:101C000099F760E087E00E940D0360E087E00E94A2
:101C10000D0337CCA501940119A28E010F5D1F4F52
:101C20008AE0882E912CA12CB12CCA01B901A50102
:101C300094012ED4605DD8016E938D01211531057C
:101C40004105510591F748CF009124441091254456
:101C500062E370E080E090E00115110521F065E09D
:101C600070E080E090E00E940F010C5E1F4F009337
:101C70002444109325446AE070E080E090E00E94E4
:101C80000F0161CFEFE5FBE68EE0DF011D928A9543
:101C9000E9F787E0EFEBF3E4A9E5BBE601900D92ED
:101CA0008A95E1F710921E4410921F44109220442E
:101CB000109221440E947104182F69E57BE68CE0A4
:101CC0009CE60E94C70511113EC06AE070E080E00A
:101CD00090E00E940F0180911E4490911F44A091BA
:101CE0002044B09121440196A11DB11D80931E4452
:101CF00090931F44A0932044B0932144C297A10520
:101D0000B105C0F20E94320100911A4410911B44A7
:101D100020911C4430911D44DC01CB01801B910BB0
:101D2000A20BB30BBF93AF939F938F9387EC93E476
:101D30009F938F938CE09CE69F938F930E94CE0598
:101D4000CDBFDEBF62CF65E070E080E090E00E9432
:101D50000F01D8CF2F923F924F925F926F927F9256
:101D60008F929F92AF92BF92CF92DF92EF92FF92AB
:101D70000F931F93CF93DF93CDB7DEB72B97CDBFD4
:101D8000DEBF7C013B018A01FC0116821782838140
:101D900081FFCDC1CE0101965C01F7019381F30172
:101DA00093FD859193FF81913F01882309F449C1F7
:101DB000853239F493FD859193FF81913F018532FE
:101DC00021F4B70190E0CCD1E8CF912C212C312C1B
:101DD000FFE1F31538F08B3211F190F4803209F104
:101DE000833229F137FC3CC020ED280F2A3050F512
:101DF00036FE20C08AE0989E200D1124922E06C047
:101E00008D3291F0803371F7689430F8F30193FDCF
:101E1000859193FF81913F018111DACF21C06894B0
:101E200031F8689432F8F2CF689433F8EFCF6894C1
:101E300034F8ECCFEAE02E9E200D1124222E689477
:101E400035F8E4CF8E3229F436FCFBC0689436F8BE
:101E5000DDCF8C3619F4689437F8D8CF8836B1F2D4
:101E6000982F9F7D95549330D8F0833691F1833726
:101E7000B1F1833509F05EC02801F2E04F0E511C2C
:101E8000F801C080D180692D70E036FC02C06FEF90
:101E90007FEFC6014FD14C01689437F882010AC028
:101EA0000C5F1F4FFFE3F98388248394912C650115
:101EB000E89437F833FE2AC0522C8114910459F566
:101EC000552009F46ACFB70180E290E049D15A94D5
:101ED000F7CFF801808189830E5F1F4FE5CF28017E
:101EE000F2E04F0E511CF801C080D180692D70E0E6
:101EF00036FC02C06FEF7FEFC60127D14C01820193
:101F0000D7CFB70180E290E02BD12A94281419048E
:101F100009F0B8F7D1CFF60137FC859137FE8191F2
:101F20006F01B70190E01CD151105A94F1E08F1A63
:101F30009108C3CF843619F0893609F073C0F801CF
:101F400037FE67C060817181828193810C5F1F4F72
:101F5000F32DFF763F2E97FF09C0909580957095E1
:101F600061957F4F8F4F9F4F689437F82AE030E09C
:101F7000A50126D1C82ECA188C2C432C36FE0CC0C5
:101F8000E89440F8C91440F434FE05C032FC03C0A4
:101F9000F32DFE7E4F2E892C44FEA3C0FE01EC0DD6
:101FA000F11D8081803309F095C0242D297E422EB9
:101FB000842D8870582E43FCA2C040FE9CC09C2CEF
:101FC000821418F42C0C922C981844FE9EC0B70171
:101FD00080E390E0C5D042FE08C088E790E041FE73
:101FE00002C088E590E0B701BBD0C91408F499C0DD
:101FF000CA94D12C9FEFC91AD90ACA0CDB1CF6016E
:1020000082916F01B70190E0ABD0AC14BD04B9F779
:1020100057CF60817181072E000C880B990B0E5FE2
:102020001F4F96CFD32CE894D4F82AE030E08537C0
:10203000C9F1232D297FD22E8F3691F1D8F488351E
:1020400039F1F701868197812B96CDBFDEBFDF91F5
:10205000CF911F910F91FF90EF90DF90CF90BF90A5
:10206000AF909F908F907F906F905F904F903F9038
:102070002F900895803749F0883719F7D4FE02C0B1
:102080006894D2F820E130E00DC06894D4F8F6CF1F
:1020900034FE03C0822F8660D82E20E132E002C0D9
:1020A00028E030E0F801D7FE0EC0608171818281A6
:1020B00093810C5F1F4FA50183D0C82ECA183D2CF9
:1020C000E89437F859CF6081718190E080E00E5F2D
:1020D0001F4FF1CF42FC02C083946ACF8394839454
:1020E00067CF842D867809F463CFF6CFB70180E2FD
:1020F00090E036D083948214C8F3512C66CF522CD2
:102100005818821408F461CFF8CF842D867809F42A
:102110006CCF8BE241FE80E247FC8DE2B70190E09C
:1021200063CFB70180E390E01BD09A945ECF8FEF2E
:102130009FEF8ACFFC010590615070400110D8F7E5
:10214000809590958E0F9F1F0895FC0161507040FF
:1021500001900110D8F7809590958E0F9F1F0895DC
:102160000F931F93CF93DF93182F092FEB018B81D0
:1021700081FD09C01FEF0FEF812F902FDF91CF91CD
:102180001F910F91089582FF14C02E813F818C8191
:102190009D81281739073CF4E881F981CF01019628
:1021A0008883998310838E819F8101968E839F837C
:1021B000E3CFE885F985812F0995892BA1F3DACF43
:1021C000FA01AA27283051F1203181F1E8946F9368
:1021D0006E7F6E5F7F4F8F4F9F4FAF4FB1E03ED00E
:1021E000B4E03CD0670F781F891F9A1FA11D680FAC
:1021F000791F8A1F911DA11D6A0F711D811D911DDF
:10220000A11D20D009F468943F912AE0269F112453
:102210003019305D3193DEF6CF010895462F4770B7
:10222000405D4193B3E00FD0C9F7F6CF462F4F7012
:10223000405D4A3318F0495D31FD4052419302D070
:10224000A9F7EACFB4E0A695979587957795679516
:10225000BA95C9F700976105710508959B01AC0116
:102260000A2E06945795479537952795BA95C9F73D
:10227000620F731F841F951FA01D0895E89409C065
:1022800097FB3EF490958095709561957F4F8F4FA9
:102290009F4F9923A9F0F92F96E9BB279395F695BF
:1022A000879577956795B795F111F8CFFAF4BB0F3D
:1022B00011F460FF1BC06F5F7F4F8F4F9F4F16C0A1
:1022C000882311F096E911C0772321F09EE8872F2B
:1022D000762F05C0662371F096E8862F70E060E0E7
:1022E0002AF09A95660F771F881FDAF7880F969560
:1022F000879597F908950BD078C069D028F06ED0F3
:1023000018F0952309F05AC05FC01124A2C07ED0F6
:10231000A0F3959FD1F3950F50E0551F629FF001F8
:10232000729FBB27F00DB11D639FAA27F00DB11D51
:10233000AA1F649F6627B00DA11D661F829F2227DA
:10234000B00DA11D621F739FB00DA11D621F839F61
:10235000A00D611D221F749F3327A00D611D231F37
:10236000849F600D211D822F762F6A2F11249F5785
:1023700050408AF0E1F088234AF0EE0FFF1FBB1FA8
:10238000661F771F881F91505040A9F79E3F510547
:1023900070F014C05EC05F3FECF3983EDCF38695AE
:1023A00077956795B795F795E7959F5FC1F7FE2BF2
:1023B000880F911D9695879597F9089597F99F67CE
:1023C00080E870E060E008959FEF80EC08950024BD
:1023D0000A941616170618060906089500240A948A
:1023E00012161306140605060895092E0394000C10
:1023F00011F4882352F0BB0F40F4BF2B11F460FF9F
:1024000004C06F5F7F4F8F4F9F4F089557FD9058C7
:10241000440F551F59F05F3F71F04795880F97FBA8
:10242000991F61F09F3F79F0879508951216130662
:102430001406551FF2CF4695F1DF08C01616170691
:102440001806991FF1CF86957105610508940895C6
:10245000E894BB2766277727CB0197F9089509D021
:10246000A59F900DB49F900DA49F800D911D1124E8
:102470000895A29FB001B39FC001A39F700D811D5D
:102480001124911DB29F700D811D1124911D08957D
:10249000A1E21A2EAA1BBB1BFD010DC0AA1FBB1F68
:1024A000EE1FFF1FA217B307E407F50720F0A21BDA
:1024B000B30BE40BF50B661F771F881F991F1A9447
:1024C00069F760957095809590959B01AC01BD0171
:1024D000CF010895EE0FFF1F0024001C0BBE0790D4
:1024E000F691E02D099404D06894B111B2CF08950B
:1024F00095DF88F09F5790F0B92F9927B751A0F03A
:10250000D1F0660F771F881F991F1AF0BA95C9F787
:1025100012C0B13081F09CDFB1E0089599CF672FF0
:10252000782F8827B85F39F0B93FCCF38695779537
:102530006795B395D9F73EF4909580957095619520
:102540007F4F8F4F9F4F0895FB01DC0102C0019028
:0E2550000D9241505040D8F70895F894FFCFF7
:10255E0061F4017672745031000000202140404039
:10256E00402200000000000000000080000000007B
:10257E00000000000001020304050607000102032B
:10258E00FF0102030405060700010203040506000D
:10259E000000000000000002020202030303030316
:1025AE0003030305050505050505010204081020B2
:1025BE00408001020408FF0204081020408001023E
:1025CE0004081020400000000013023E016B015F62
:1025DE0002EA017A01DC010D0A536F6674776172AB
:1025EE0065207265736574202E2E2E0D0A000A0A60
:1025FE000A416E64207468616E206974206265679A
:10260E00696E73202E2E2E2E005265616420746822
:10261E0065205377697463686573202E2E2E0052E1
:10262E0046323420506F7765722073657420746F54
:10263E00204D4158005246323420506F776572203B
:10264E0073657420746F204C4F57003E3E3E000D54
:10265E000A4E6F204E524632344C30312074726125
:10266E006E63656976657220666F756E64210053C0
:10267E0065742052463234206368616E6E656C203C
:10268E00746F205B307825785D2F5B25645D0D0AB5
:10269E000049276D20612052656365697665722158
:1026AE000049276D20612052454345495645522029
:1026BE00666F722070697065205B25735D2E2E2EFD
:1026CE000D0A0A0049276D2061205472616E736DE8
:1026DE006974746572210049276D2061205452413E
:1026EE004E534D495454455220666F722070697096
:1026FE0065205B25735D2E2E2E0D0A0A002B2B2BCB
:10270E002B2B74656C656772616D206973205B2578
:10271E00645D62797465732B2B2B2B2B2B2B2B2B40
:10272E002B2B2B2B2B2B2B2B2B2B2B0D0A005465F2
:10273E006C656772616D207265636569766564208C
:10274E00696E202564206D696C6C697365636F6EAC
:10275E006473210D0A000D0A666F756E6420454F75
:10276E005420746F6B656E21000D0A7265616420D2
:10277E005B25645D62797465730D0A00536F6D6538
:10278E007468696E672077656E742077726F6E67F6
:10279E00202E2E20286E6F2027212720666F756E23
:1027AE006420696E20696E70757429000D0A3D3DB6
:1027BE003D3D3D3D3D3D3D3D002E2E204261696C2F
:1027CE006F757421200D0A004D6178207761697450
:1027DE0074696D652065787069726564212042693F
:1027EE00616C4F75740054656C656772616D207411
:1027FE006F6F2073686F7274205B25645D627974ED
:10280E0065733B206D757374206265206174206C56
:10281E0065617374205B25645D62797465732E2E19
:10282E002E204261696C6F75740D0A0046696E64E4
:10283E00206C617374205B2F5D202E2E20696E201C
:10284E005B25645D62797465730D0A000D0A6E5323
:10285E00746172742074656C656772616D205B2F94
:10286E005D20666F756E6420617420627974655B9D
:10287E0025645D202E2E2E0D0A0A004E6F742061E7
:10288E002076616C6964207374617274205B2F5DB5
:10289E0020666F756E642E2E204261696C6F7574A2
:1028AE000D0A002D2D2D2D2D2D2D2D2D2D2D2D2DBA
:1028BE002D2D2D2D2D2D2D2D2D2D2D2D2D2D2D2D3A
:1028CE002D2D2D2D2D2D2D2D2D2D2D2D2D2D2D2D2A
:1028DE002D2D2D2D2D2D2D2D2D00703154656C652A
:1028EE006772616D206973205B005D627974657338
:1028FE00206C6F6E67000D0A5472616E736D697491
:10290E002074656C656772616D202E2E0D0A002A8B
:10291E00454F542A0D0A0054656C656772616D202F
:10292E007472616E736D697474656420696E2025AE
:10293E0064206D696C6C697365636F6E6473210DD1
:10294E000A004D6178205472616E736D6974206552
:10295E0072726F72732E2E204261696C206F7574C5
:02296E00210046
:00000001FF
